:040000008A11F72F3B
:1007800000308A11E8238A1101308A11E823080019
:1007900064008001840A0406031900340406C92B8E
:1007A00083120313A000201CD72B8614D82B86108D
:1007B000A01CDC2B0615DD2B0611201DE12B861558
:1007C000E22B8611A01DE62B061608000612080073
:1007D00083120313A300861223088A11D0238A11DF
:1007E0008312031306171530A200C630A100A10B17
:1007F000F72BA20BF72B000083120313061308003C
:10080000013083120313A8000030A9002908270231
:10081000031D0C2C28082602031C0800E830A00049
:100820000330A1008A111E248A11013083120313A0
:10083000A8070318A90A0030A907062C0130831263
:100840000313A4000030A50025082102031D2A2C53
:1008500024082002031C08000630A3003030A20048
:10086000A20B302CA30B302C000001308312031399
:10087000A4070318A50A0030A507242C831203132C
:10088000AB00AC01AD012D08803AFF0080307F0243
:10089000031D4C2C08302C0203180800831203138C
:1008A0002608A80002300310A80DFF3E031D532C9C
:1008B0000310280D2B07A9002C082907AA002A08D5
:1008C0008400831300088A11A4248A110130831242
:1008D0000313AC070318AD0A0030AD07432C831295
:1008E0000313B300A40101308A112D258A1183124C
:1008F00003133208A701A7073108A601A60733088A
:100900008A113E248A1183120313A40102308A1132
:100910002D258A11831203133208A701A707310876
:10092000A601A6072E088A113E248A1183120313FA
:100930003008A701A7072F08A601A6078A110024DF
:100940008A118A11C023080083120313A500250809
:100950000F39A1002108A3002508F039A1002108C2
:10096000A40086162408A10004300310A10CFF3E49
:10097000031DB52C21088A11D0238A118312031379
:1009800006171A30A200F830A100A10BC52CA20B4B
:10099000C52C000083120313061323088A11D023E9
:1009A0008A118312031306171A30A200F830A1002F
:1009B000A10BD82CA20BD82C000083120313061312
:1009C000080000308A11D0238A1168308312031383
:1009D000A500E430A400A40BEB2CA50BEB2C00002D
:1009E00003308A11E8238A111A3083120313A500F9
:1009F000F830A400A40BFA2CA50BFA2C000003304D
:100A00008A11E8238A113A3083120313A500233098
:100A1000A400A40B092DA50B092D03308A11E8238E
:100A20008A1102308A11E8238A1102308A11E823E0
:100A30008A1108308A11E8238A1100308A11E823CC
:100A40008A110C308A11E8238A1100308A11E823B8
:100A50008A1106308A11E823080083120313A700C5
:100A60002708013A031D552D2408803EA5002508BE
:100A7000A8002808A50004300310A50CFF3E031DA4
:100A80003C2D2508A6002608A9002408803E0F3921
:100A9000A5002508AA0029088A11E8238A118312D3
:100AA00003132A088A11E823080083120313270876
:100AB000023A031D08002408C03EA5002508A8002E
:100AC0002808A50004300310A50CFF3E031D632D6C
:100AD0002508A6002608A9002408C03E0F39A50055
:100AE0002508AA0029088A11E8238A118312031312
:100AF0002A088A11E82308008312031383120313C0
:100B000085018601870183168316031386018312EC
:100B100003138601831603138501831203138501D2
:100B200083160313870183120313870183128A112B
:100B3000F6258A118A11E1248A118A11C0238A11AB
:100B40008312031307140330A6000030A7008A1194
:100B500000248A11831203130710C8308312031371
:100B6000B4003408AE000230AF000030B0000230F4
:100B7000B1000030B200A0308A116F248A11C83051
:100B800083120313B4003408AE000230AF0000300B
:100B9000B0000130B1000030B200A0308A116F24E3
:100BA0008A11C83083120313B4003408AE00023037
:100BB000AF000030B0000430B1000030B200A0300F
:100BC0008A116F248A11C83083120313B4003408C9
:100BD000AE000230AF000030B0000530B100003090
:100BE000B200A0308A116F248A11AD2D54308312C7
:100BF0000313A000200883160313B00048308312AB
:100C00000313A000200883160313B1004930831298
:100C10000313A000200883160313B200533083127D
:100C20000313A000200883160313B300203083129F
:100C30000313A000200883160313B4004930831265
:100C40000313A000200883160313B500533083124A
:100C50000313A000200883160313B600203083126C
:100C60000313A000200883160313B700413083123A
:100C70000313A000200883160313D800203083122A
:100C80000313A000200883160313D90054308312E5
:100C90000313A000200883160313DA0045308312E3
:100CA0000313A000200883160313DB0053308312C4
:100CB0000313A000200883160313DC0054308312B2
:100CC0000313A000200883160313DD0021308312D4
:100CD0000313A000200883160313DE0021308312C3
:100CE0000313A000200883160313DF0021308312B2
:100CF0000313A000200883160313A80040308312BA
:100D00000313A000200883160313A90023308312C5
:100D10000313A000200883160313AA0024308312B3
:100D20000313A000200883160313AB0025308312A1
:100D30000313A000200883160313AC005E30831257
:100D40000313A000200883160313AD00263083127E
:100D50000313A000200883160313AE002A30831269
:100D60000313A000200883160313AF00283083125A
:100D70000313A000200883160313D0002930831228
:100D80000313A000200883160313D1002D30831213
:100D90000313A000200883160313D2005F308312D0
:100DA0000313A000200883160313D3003D308312E1
:100DB0000313A000200883160313D4005B308312B2
:100DC0000313A000200883160313D5005D3083129F
:100DD0000313A000200883160313D6005A30831291
:100DE0000313A000200883160313D7005330831287
:100DF0000313A000200883160313C000453083129C
:100E00000313A000200883160313C100543083127B
:100E10000313A000200883160313C200203083129E
:100E20000313A000200883160313C3004430831269
:100E30000313A000200883160313C4004530831257
:100E40000313A000200883160313C5005630831235
:100E50000313A000200883160313C600203083125A
:100E60000313A000200883160313C7004530831224
:100E70000313A000200883160313E80058308312E0
:100E80000313A000200883160313E90045308312E2
:100E90000313A000200883160313EA0020308312F6
:100EA0000313A000200883160313EB0020308312E5
:100EB0000313A000200883160313EC0020308312D4
:100EC0000313A000200883160313ED0020308312C3
:100ED0000313A000200883160313EE0020308312B2
:100EE0000313A000200883160313EF00433083127E
:100EF0000313A000200883160313C8004630831292
:100F00000313A000200883160313C900473083127F
:100F10000313A000200883160313CA002030831295
:100F20000313A000200883160313CB004330831261
:100F30000313A000200883160313CC004130831252
:100F40000313A000200883160313CD004C30831236
:100F50000313A000200883160313CE002030831251
:100F60000313A000200883160313CF00433083121D
:100F70000313A000200883160313F0004F308312E0
:100F80000313A000200883160313F10044308312DA
:100F90000313A000200883160313F20020308312ED
:100FA0000313A000200883160313F30052308312AA
:100FB0000313A000200883160313F40045308312A6
:100FC0000313A000200883160313F5005430831286
:100FD0000313A000200883160313F60020308312A9
:100FE0000313A000200883160313F70008008313DF
:100FF000A0308400F0308A11C82383018A117C2D2F
:02400E00BAFFF7
:00000001FF
